:020000040800F2
:100000000000022051210008490A00084D0A00089A
:10001000510A0008550A0008590A000800000000AB
:100020000000000000000000000000005D0A000861
:10003000610A000800000000650A0008690A00085B
:10004000A1210008A1210008A1210008A121000888
:10005000A1210008710A0008A1210008A1210008BF
:10006000A1210008A1210008A1210008A121000868
:10007000A1210008A1210008A1210008A121000858
:10008000A1210008A1210008A1210008A121000848
:10009000A1210008A1210008A1210008A121000838
:1000A000A1210008A1210008A1210008A121000828
:1000B000A1210008A1210008A1210008A121000818
:1000C000A1210008A1210008A1210008A121000808
:1000D000A1210008A1210008A1210008A1210008F8
:1000E000A1210008A1210008A1210008A1210008E8
:1000F000A1210008A1210008A1210008A1210008D8
:10010000A1210008A1210008A1210008A1210008C7
:10011000A1210008A1210008A1210008A1210008B7
:10012000A1210008A1210008A1210008A1210008A7
:10013000A12100080000000000000000A12100082B
:10014000A1210008A1210008A1210008A121000887
:10015000A1210008A1210008A1210008A121000877
:10016000A1210008A1210008A1210008A121000867
:10017000A1210008A1210008A12100080000000021
:1001800000000000A12100080000000000000000A5
:10019000A12100080000000000000000A1210008CB
:1001A000000000000000000000000000A121000885
:1001B000A1210008A1210008A1210008A121000817
:0401C000A121000871
:1001C400044B05481B1A062B02D9044B03B11847EC
:1001D400704700BF0F0000200C000020000000004A
:1001E40005490648091A891001EBD171491002D05A
:1001F400034B03B1184770470C0000200C0000208B
:100204000000000010B5064C237843B9FFF7D8FF6F
:10021400044B13B10448AFF300800123237010BDD5
:100224000C00002000000000F021000808B5084B75
:100234001BB108480849AFF300800848036813B9A4
:10024400BDE80840CCE7064B002BF9D09847F7E708
:1002540000000000F0210008100000200C00002025
:100264000000000053B94AB9002908BF00281CBF88
:100274004FF0FF314FF0FF3000F03CB882B0EC4655
:100284002DE9005000F01EF8DDF804E002B00CBCCB
:10029400704700BF2DE9F041069C154606460F46FF
:1002A400984600F029F805FB01F300FB0838A5FB8C
:1002B4000023B21A434467EB0303C4E90023BDE8F7
:1002C400F08100BF2DE9F041069C904606460F469A
:1002D4001D4600F05FF900FB05F5A0FB082308FBB1
:1002E4000155B21A2B4467EB0303C4E90023BDE8AC
:1002F400F08100BF704700BF00292DE9F043C0F230
:10030400A6800026002BC0F29C80884694469E4618
:10031400154604460F46002B3DD18A4259D9B2FAFC
:1003240082F33BB1C3F120029F4020FA02F29D40C8
:1003340017439C40290C220CB7FBF1FEA8B201FB29
:100344001E7742EA074700FB0EF3BB420AD97F1926
:100354000EF1FF3280F00581BB4240F20281AEF122
:10036400020E2F44FF1AA4B2B7FBF1F301FB13777B
:1003740044EA074700FB03F0B84208D97F1903F1A8
:10038400FF3280F0F080B84240F2ED80023B43EA55
:100394000E43002203E08B420FD900221346341C83
:1003A40018BF012460424FF0000565EB4501584039
:1003B400514000196941BDE8F083B3FA83F2002A81
:1003C40040F086808B4202D3844500F2DB80012317
:1003D400E5E712B90123B3FBF2F5B5FA85F000287D
:1003E4003BD1781B4FEA154E1FFA85FC0122B0FB66
:1003F400FEF8210C0EFB180741EA07470CFB08F333
:10040400BB4207D97F1908F1FF3102D2BB4200F287
:10041400BD808846FF1AA4B2B7FBFEF30EFB137728
:1004240044EA07470CFB03FCBC4507D97F1903F1D9
:10043400FF3102D2BC4500F2A7800B4643EA0843D1
:10044400ADE752426FEA060663EB43035DE74042C1
:1004540061EB41014FF0FF3654E7C0F1200224FA6A
:1004640002F107FA00F385404FEA154ED7401943CD
:10047400B7FBFEF20B0C0EFB12771FFA85FC43EA66
:1004840007430CFB02F79F4204FA00F407D95B19F7
:1004940002F1FF3074D29F4272D9023A2B44DF1B1F
:1004A40089B2B7FBFEF80EFB187341EA03430CFB59
:1004B40008F79F4208D95B1908F1FF315CD29F42CB
:1004C4005AD9A8F102082B44D81B48EA02428EE705
:1004D400C2F120032CFA03F10EFA02FE20FA03F70C
:1004E40041EA0E0E08FA02F028FA03F14FEA1E451B
:1004F4003843B1FBF5F8030C05FB18111FFA8EF70E
:1005040043EA014107FB08F38B420CFA02FC09D9C8
:1005140011EB0E0108F1FF3930D28B422ED9A8F12C
:1005240002087144C91A80B2B1FBF5F305FB13113B
:1005340040EA014107FB03F78F4208D911EB0E0192
:1005440003F1FF3016D28F4214D9023B714443EABF
:100554000843C91BA3FB0C89494509D305D00022D4
:100564001DE79646FEE6134611E794404445F6D24D
:10057400013BF4E70346EAE78846A5E7C846D1E726
:1005840002468CE713460AE7023B57E7A8F1020844
:100594002F443FE72DE9F041002B44D18A42154610
:1005A40004464FD9B2FA82F70E464FB1C7F1200381
:1005B400B94020FA03F602FA07F50E4300FA07F4ED
:1005C4004FEA154E230CB6FBFEF0AFB20EFB1061E2
:1005D40043EA014307FB00F1994209D95B1900F191
:1005E400FF3280F0EC80994240F2E98002382B44DB
:1005F4005A1AA4B2B2FBFEF30EFB132244EA0242DF
:1006040007FB03F7974208D9521903F1FF3180F031
:10061400D880974240F2D580023B43EA004000264E
:100624003146BDE8F0818B4247D8B3FA83F6002EF9
:1006340048D18B4202D3824200F2CD800120314660
:10064400BDE8F08112B90125B5FBF2F5B5FA85F8DC
:10065400B8F1000F77D14A1B4FEA154EAFB201260D
:10066400B2FBFEF0230C0EFB102143EA014107FB11
:1006740000F38B4207D9491900F1FF3202D28B42B1
:1006840000F2BA801046C91AA4B2B1FBFEF30EFB05
:10069400131144EA014407FB03F7A74208D964197C
:1006A40003F1FF3280F08F80A74240F28C80023B3E
:1006B40043EA00403146BDE8F08100263046314629
:1006C400BDE8F081C6F1200422FA04F5B3402B43BF
:1006D40020FA04FC01FA06F721FA04F54FEA134E56
:1006E4004CEA0707B5FBFEF8390C0EFB18551FFA48
:1006F40083FC41EA05450CFB08F1A94202FA06F223
:1007040004D9ED1808F1FF3467D3A0466D1ABFB2BF
:10071400B5FBFEF40EFB145547EA05410CFB04FC43
:100724008C4504D9C91804F1FF355CD32C4644EA3E
:100734000844CCEB0101A4FB0223994248D344D0E2
:10074400204600266CE7C8F1200401FA08F305FAF4
:1007540008F520FA04F7E1404FEA154E1F43B1FBB8
:10076400FEF63A0C0EFB16111FFA85FC42EA014311
:100774000CFB06F29A4200FA08F407D95B1906F159
:10078400FF3137D29A4235D9023E2B449B1ABFB26D
:10079400B3FBFEF00EFB103347EA03430CFB00F1FE
:1007A400994207D95B1900F1FF3221D299421FD92E
:1007B40002382B445A1A40EA0646674650E7104668
:1007C40016E70B4629E7134672E7B0409042B7D2CA
:1007D400601E002624E7304622E7A94295D9A8F1F5
:1007E40002081D4492E78C45A0D9023C19449EE7B7
:1007F4001046DFE70E46C9E70238294443E700BF45
:1008040030B589B0002403940494059406940794A5
:100814000094194B1A6B42F020021A631A6B02F00F
:1008240020020092009A01941A6B42F080021A632B
:100834001A6B02F080020192019A02941A6B42F040
:1008440002021A631B6B03F002030293029B0B4D1B
:10085400284644F28101224601F074FB44F28103EC
:1008640003930123049305940694284603A901F0F5
:1008740087FA09B030BD00BF0038024000040240CE
:1008840008B50948094B0360094B436000238360A2
:10089400C3604FF48042026143618361C3610362B8
:1008A40000F046FB08BD00BF2800002000580040AF
:1008B400A086010030B595B00024079408940994EB
:1008C4000A940B940C940D940E940F941094119418
:1008D400129413940294039404940594069400943B
:1008E4001C4B1A6C42F080521A641B6C03F0805348
:1008F4000093009B0194184B1A6842F440421A601A
:100904001B6803F440430193019B012307934FF4B5
:100914008033089302250D954FF480030E9304232E
:100924000F93A8231093119507231293139507A8E7
:1009340001F032F80F230293039504944FF4A0536B
:1009440005934FF48053069302A8052100F0A6FEF8
:1009540015B030BD003802400070004000B583B0CF
:1009640001F08EFBFFF7A6FFFFF74AFFFFF788FFB2
:100974003148D02102220A2300F0CEFD90BB2F4C37
:100984002046012101F0E4FA4FF4FA7001F0A4FBCF
:100994002046802101F0DCFA4FF4FA7001F09CFB50
:1009A40020464FF4804101F0D3FA4FF4FA7001F07D
:1009B40093FB2046012101F0CBFA4FF4FA7001F0C9
:1009C4008BFB2046802101F0C3FA4FF4FA7001F04A
:1009D40083FB20464FF4804101F0BAFA4FF4FA70D9
:1009E40001F07AFB164A002313707F2353700A2305
:1009F40000931148D021022300F06AFB104C00231D
:100A040023700D4D0A2600962846D0212246012344
:100A140000F05EFB00962846D021621C012300F002
:100A24000DFC0648012101F093FA607800EB800088
:100A3400400001F051FBE1E72800002000040240DF
:100A44007C000020704700BFFEE700BFFEE700BF48
:100A5400FEE700BFFEE700BF704700BF704700BF5E
:100A6400704700BF08B501F025FB08BD704700BF03
:100A740000B583B0002200920E4B596C41F48041C2
:100A84005964596C01F48041009100990192196CE8
:100A940041F0805119641B6C03F080530193019B56
:100AA4000520114601F070FA052001F09FFA03B009
:100AB4005DF804FB0038024030B589B0002303938D
:100AC40004930593069307930268144B9A4222D128
:100AD40000250195124C236B43F020032363236B01
:100AE40003F020030193019B032303931222049236
:100AF400012205920693042307930A4803A901F0EF
:100B04003FF90295236C43F480032364236C03F4BC
:100B140080030293029B09B030BD00BF005800401F
:100B2400003802400014024003685A6912F4806FCE
:100B340011D06FF480625A6100230363202280F88D
:100B44003D2080F83E30026C42F00402026480F8DA
:100B54003C30012070470020704700BFF8B50646BE
:100B64000C4617461D4618E0B5F1FF3F15D001F0BD
:100B7400ADFA069BC01AA84200D875B900233363A6
:100B8400202286F83D2086F83E30326C42F0200266
:100B9400326486F83C300120F8BDC4F30743012BCE
:100BA40008D133685B6924EA03039BB2B3FA83F385
:100BB4005B0907E033689B6924EA03039BB2B3FA39
:100BC40083F35B09BB42CFD00020F8BDF8B50446DF
:100BD4000D4616461F4633E023685A6912F4806FA7
:100BE40016D01A6842F400721A6023686FF48062A7
:100BF4005A6100232363202284F83D2084F83E3088
:100C0400226C42F00402226484F83C300120F8BDD6
:100C1400B6F1FF3F14D001F059FAC01BB04200D81E
:100C240076B900232363202284F83D2084F83E30E3
:100C3400226C42F02002226484F83C300120F8BD8A
:100C4400C5F30743012B08D123685B6925EA030335
:100C54009BB2003318BF012307E023689B6925EA90
:100C640003039BB2003318BF0123002BB4D100202F
:100C7400F8BD00BFF0B583B004460F4616461D46C6
:100C8400C36A082B04D0012B02D013F5803F05D191
:100C94002268136843F48073136007E0036B122B1C
:100CA40004D10268136843F48073136000952046EE
:100CB4004FF0011100223346FFF750FF18BB2369A0
:100CC400B3F5804F04D1236807F0FE071F6110E0DD
:100CD400226807F44073DB1143F0F00313612046EC
:100CE4000C4932462B46FFF771FF70B92368FFB2F7
:100CF4001F612046084932462B46FFF767FF03462B
:100D040020B1012302E0012300E00123184603B0CF
:100D1400F0BD00BF08000100020001002DE9F04110
:100D240084B004460D4617461E46C26A01680B6825
:100D340043F480630B60082A04D0012A02D012F520
:100D4400803F05D12268136843F48073136007E081
:100D5400036B112B04D10268136843F4807313608E
:100D6400009620464FF0011100223B46FFF7F6FEA5
:100D7400002844D12369B3F5804F05D1236845F099
:100D84000105EDB21D6130E0236805F440784FEAB7
:100D9400D81848F0F0021A6120461E493A463346F4
:100DA400FFF714FF68BB2368EDB21D6120461A49A2
:100DB4003A463346FFF70AFF28BB00220392236812
:100DC40059690391996903910399196841F48071F0
:100DD4001960009620464FF001113B46FFF7BEFE16
:100DE40098B9226848F0F103136120460A493A464B
:100DF4003346FFF7EBFE034640B1012306E001232F
:100E040004E0012302E0012300E00123184604B0BA
:100E1400BDE8F081080001000200010070B504463D
:100E24000D4616461BE02046FFF77EFEF0B9B5F1ED
:100E3400FF3F14D001F04AF9801BA84200D875B9CD
:100E440000232363202284F83D2084F83E30226C62
:100E540042F02002226484F83C30012070BD2368F3
:100E64005B6913F0800FDED0002070BD012070BDDF
:100E740070B504460D4616461BE02046FFF754FEA7
:100E8400F0B9B5F1FF3F14D001F020F9801BA8425E
:100E940000D875B900232363202284F83D2084F808
:100EA4003E30226C42F02002226484F83C3001205F
:100EB40070BD23685B6913F0040FDED0002070BDA1
:100EC400012070BD70B505460C46164628E05A69E7
:100ED40012F0100F0FD06FF010025A6100232B6331
:100EE400202285F83D2085F83E302A6C2A6485F856
:100EF4003C30012070BD01F0E9F8801BA04200D80D
:100F040074B900232B63202285F83D2085F83E30F8
:100F14002A6C42F020022A6485F83C30012070BD1E
:100F24002B685A6912F0400FD1D0002070BD00BF69
:100F3400002800F0BF80F8B5044690F83D3013F067
:100F4400FF0F04D1002380F83C30FFF7B5FD2423C4
:100F540084F83D302268136823F00103136000F025
:100F640053FC6268554B9A4205D8554B98428CBF46
:100F74000023012304E0534B98428CBF0023012338
:100F8400002B40F09980504BA3FB00239B0C21685D
:100F94004A6822F03F021A434A602568296A21F010
:100FA4003F016668454A964201D8013308E04FF490
:100FB400967202FB03F2454BA3FB02239B09013308
:100FC4000B432B622168CB6923F44F4525F0FF05C1
:100FD40063683A4A93420AD801385B00B0FBF3F3E2
:100FE4000133C3F30B03042B38BF042335E0A66895
:100FF4005EB9421E03EB4307B2FBF7F2120512F58A
:10100400801F14BF002201220CE0421E03EB830761
:1010140007EB8707B2FBF7F2120512F5801F14BF26
:1010240000220122C2B956B9013803EB4303B0FBD5
:10103400F3F30133C3F30B0242F400430DE0013830
:1010440003EB830303EB8303B0FBF3F20132C2F33C
:101054000B0242F4404300E001232B43CB6121689F
:101064000B6823F0C002E069236A034313430B6057
:1010740021688B6823F4034222F0FF022069E368AD
:10108400034313438B602168CB6823F0FF0260693C
:10109400A36903431343CB602268136843F001033D
:1010A400136000202064202384F83D30206384F8FA
:1010B4003E00F8BD012070470120F8BDA086010064
:1010C4007F841E00FF083D0083DE1B43D34D621066
:1010D4002DE9F04184B004460D4690461F4600F0C9
:1010E400F5FF94F83D30DBB2202B40F094800646A7
:1010F400009020464F4901221923FFF72FFD0028B5
:1011040040F08B8094F83C30012B00F08880012360
:1011140084F83C3023681A6812F0010F03D11A686E
:1011240042F001021A602268136823F4006313601A
:10113400212384F83D30102384F83E3000232364B7
:10114400C4F824806785638D23853B4BE362204686
:1011540029460A9A3346FFF78DFD0546002860D1DB
:101164000023039323685A6903929B690393039BA7
:1011740040E020460A993246FFF750FE48B1236CFE
:10118400042B50D12268136843F4007313600125C3
:101194004CE02368626A12781A61616A4B1C6362CC
:1011A400638D013B9BB26385238D013B9BB22385F9
:1011B4002268506910F0040F0CD05BB14B781361B6
:1011C400636A01336362638D013B9BB26385238D44
:1011D400013B238520460A993246FFF749FE48B170
:1011E400236C042B21D12268136843F40073136029
:1011F40001251BE0238D002BBBD12268136843F427
:1012040000731360202384F83D30002384F83E30BB
:1012140084F83C300AE0022508E0022506E00225B5
:1012240004E0012502E0012500E00125284604B080
:10123400BDE8F081020010000000FFFF2DE9F0413D
:1012440086B004460D4690461F4600F03FFF94F8D2
:101254003D30DBB2202B40F0428106460090204610
:10126400A04901221923FFF779FC002840F04081AE
:1012740094F83C30012B00F03D81012384F83C308C
:1012840023681A6812F0010F03D11A6842F00102B0
:101294001A602268136823F400631360222384F81D
:1012A4003D30102384F83E3000232364C4F82480A6
:1012B4006785638D23858C4BE362204629460C9A0F
:1012C4003346FFF72BFD0546002840F01581238D9A
:1012D4005BB9029323685A6902929A690292029A4C
:1012E4001A6842F400721A60ECE0012B11D12268F2
:1012F400136823F4806313600023039323685A69FB
:1013040003929A690392039A1A6842F400721A606B
:10131400D8E0022B12D12268136823F4806313608F
:101324002268136843F40063136000230493236862
:101334005A6904929B690493049BC3E0226813686E
:1013440043F4806313600023059323685A6905926C
:101354009B690593059BB5E0032B00F28D80012B5F
:1013640016D120460C993246FFF7ACFD002840F018
:10137400C580636A226812691A70636A0133636202
:10138400238D013B2385638D013B9BB2638599E0EB
:10139400022B2AD100962046544900220C9BFFF7C9
:1013A400DDFB002840F0AC802268136843F400732E
:1013B4001360636A226812691A70626A531C63625A
:1013C400238D013B2385638D013B9BB26385236899
:1013D4001B695370636A01336362238D013B238568
:1013E400638D013B9BB263856CE0009620463F49C8
:1013F40000220C9BFFF7B2FB002840F08380226898
:10140400136823F480631360636A226812691A7094
:10141400636A01336362238D013B2385638D013B42
:101424009BB2638500962046304900220C9BFFF74F
:1014340095FB002868D12268136843F40073136095
:10144400636A226812691A70626A531C6362238D8C
:10145400013B2385638D013B9BB2638523681B6934
:101464005370636A01336362238D013B2385638D6B
:10147400013B9BB2638525E020460C993246FFF779
:1014840021FD002842D1636A226812691A70626AD7
:10149400531C6362238D013B2385638D013B9BB207
:1014A40063852368596911F0040F0BD01B695370CD
:1014B400636A01336362238D013B2385638D013BA2
:1014C4009BB26385238D002B7FF446AF202384F8E1
:1014D4003D30002384F83E3084F83C3017E0022588
:1014E40015E000BF020010000000FFFF040001002F
:1014F40002250CE002250AE0012508E0012506E0AA
:10150400012504E0012502E0012500E0012528462B
:1015140006B0BDE8F08100BF2DE9F04385B0044674
:101524000F4690461D4600F0D1FD94F83D30DBB2E5
:10153400202B40F0A1800646009020465649012207
:101544001923FFF70BFB002840F0988094F83C30F7
:10155400012B00F09580012384F83C3023681A683D
:1015640012F0010F03D11A6842F001021A602268D6
:10157400136823F400631360242384F83D300023AC
:101584002364A3F58033E3624FF0010922681368F2
:1015940043F480731360009620464FF0011100223B
:1015A4002B46FFF7DBFA00286CD1236807F0FE0214
:1015B4001A6100F08BFD064623685A69C2F34002A3
:1015C4005969C1F380210FE000F080FD801BA8421F
:1015D40000D815B9A02384F83D3023685A69C2F3B2
:1015E40040025969C1F3802194F83D30DBB2A02B4D
:1015F40002D00AB90029E7D0202384F83D302368BB
:101604005A6912F0020F1BD01A6842F400721A6071
:101614000023039323685A6903929B690393039BF2
:10162400009620461C4901221923FFF797FA034626
:1016340050BB202284F83D20002284F83C2026E080
:101644001A6842F400721A6023686FF480625A6167
:1016540000962046104901221923FFF77FFAA8B902
:1016640009F10109C14591D3202384F83D300023B9
:1016740084F83C3001230AE0022308E0022306E058
:10168400022304E0012302E0012300E001231846C1
:1016940005B0BDE8F08300BF02001000002800F090
:1016A400978070B50D460446504B1B6803F00F033A
:1016B4008B4208D2CBB24D4A1370136803F00F0368
:1016C4008B4240F08780236813F0020F17D013F089
:1016D400040F04D0464A936843F4E05393602368AC
:1016E40013F0080F04D0424A936843F460439360B4
:1016F4003F498B6823F0F002A36813438B6023688F
:1017040013F0010F2FD06268012A05D1384B1B68F2
:1017140013F4003F0ED15FE0931E012B05D8344B28
:101724001B6813F0007F05D158E0314B1B6813F0A0
:10173400020F55D02E498B6823F0030313438B60AB
:1017440000F0C4FC064606E000F0C0FC801B41F239
:101754008833984246D8264B9B6803F00C03626892
:10176400B3EB820FF0D1214B1B6803F00F03AB42A4
:1017740007D9EAB21D4B1A701B6803F00F03AB4282
:1017840032D1236813F0040F06D019498B6823F46F
:10179400E052E36813438B60236813F0080F07D00B
:1017A400134A936823F46043216943EAC1039360B5
:1017B40000F03AF80E4B9B68C3F303130D4AD35C55
:1017C400D8400D4B1860002000F034FC002070BDA0
:1017D40001207047012070BD012070BD012070BD43
:1017E400012070BD032070BD012070BD003C02408B
:1017F400003802400822000808000020014B186845
:10180400704700BF0800002008B5FFF7F7FF044B3E
:101814009B68C3F38223034AD35CD84008BD00BF4E
:10182400003802401822000838B5584B9B6803F072
:101834000C03082B06D00C2B56D0042B00F0A480EC
:10184400534838BD514B5A6802F03F025B6813F4A9
:10185400800F20D04D4B5B68C3F38813DC00002558
:10186400690141EAD4616001041B61EB0505A9012A
:1018740041EA9461A001001B61EB0501C01841F12C
:1018840000014B0243EAD053440220461946002388
:10189400FEF7E8FC1FE03D4B5B68C3F38813DC00F4
:1018A4000025690141EAD4616001041B61EB05056F
:1018B400A90141EA9461A001001B61EB0501C01874
:1018C40041F100018B0243EA9053840220461946F9
:1018D4000023FEF7C7FC2D4B5B68C3F301430133C0
:1018E4005B00B0FBF3F038BD284B5A6802F03F02AE
:1018F4005B6813F4800F20D0244B5B68C3F3881318
:10190400DC000025690141EAD4616001041B61EB3C
:101914000505A90141EA9461A001001B61EB0501E1
:10192400C01841F100014B0243EAD053440220465F
:1019340019460023FEF796FC1FE0144B5B68C3F3C3
:101944008813DC000025690141EAD4616001041BAD
:1019540061EB0505A90141EA9461A001001B61EB5B
:101964000501C01841F100018B0243EA905384023F
:10197400204619460023FEF775FC044B5B68C3F34D
:101984000273B0FBF3F038BD024838BD00380240A2
:101994000024F40000127A0070B582B00446036893
:1019A40013F0010F65D0A34B9B6803F00C03042BC9
:1019B40015D0A04B9B6803F00C03082B04D19D4B5E
:1019C4005B6813F4800F0AD19A4B9B6803F00C03F5
:1019D4000C2B0DD1974B5B6813F4800F08D0954BFB
:1019E4001B6813F4003F44D06368002B41D1A2E18B
:1019F4006368B3F5803F05D18E4A136843F480339E
:101A0400136015E0B3F5A02F09D18A4B1A6842F48C
:101A140080221A601A6842F480321A6008E0854B0A
:101A24001A6822F480321A601A6822F480221A603A
:101A340063687BB100F04AFB054605E000F046FB15
:101A4400401B642800F279817A4B1B6813F4003F31
:101A5400F4D00EE000F03AFB054605E000F036FB5A
:101A6400401B642800F26B81724B1B6813F4003F27
:101A7400F4D1236813F0020F5BD06E4B9B6813F014
:101A84000C0F15D06B4B9B6803F00C03082B04D18F
:101A9400684B5B6813F4800F0AD0664B9B6803F0B5
:101AA4000C030C2B16D1634B5B6813F4800F11D11C
:101AB400604B1B6813F0020F03D0E368012B40F066
:101AC40040815C4A136823F0F803216943EAC103A7
:101AD40013602EE0E368D3B10122574B1A6000F083
:101AE400F5FA054605E000F0F1FA401B022800F281
:101AF4002A81504B1B6813F0020FF4D04D4A13682F
:101B040023F0F803216943EAC103136011E00022C2
:101B1400494B1A6000F0DAFA054605E000F0D6FAFF
:101B2400401B022800F21181424B1B6813F0020F84
:101B3400F4D1236813F0080F26D0636993B101220E
:101B44003E4B1A6000F0C2FA054605E000F0BEFA0A
:101B5400401B022800F2FB80364B5B6F13F0020F30
:101B6400F4D011E00022354B1A6000F0AFFA0546BC
:101B740005E000F0ABFA401B022800F2EA802D4B8E
:101B84005B6F13F0020FF4D1236813F0040F7DD0C0
:101B9400284B1B6C13F0805F0DD100230193254B60
:101BA4001A6C42F080521A641B6C03F08053019348
:101BB400019B012500E00025214B1B6813F4807F65
:101BC40013D11F4A136843F48073136000F07EFA44
:101BD400064605E000F07AFA801B022800F2BB807A
:101BE400174B1B6813F4807FF4D0A368012B05D135
:101BF400104A136F43F00103136714E0052B09D156
:101C04000C4B1A6F42F004021A671A6F42F0010279
:101C14001A6708E0074B1A6F22F001021A671A6F5D
:101C240022F004021A67A368D3B100F04FFA064603
:101C340010E000BF0038024000004742800E4742D7
:101C44000070004000F042FA801B41F28833984251
:101C540000F28380484B1B6F13F0020FF2D00FE0A9
:101C640000F034FA064606E000F030FA801B41F238
:101C74008833984273D8404B1B6F13F0020FF3D193
:101C840025B13D4A136C23F080531364A369002BE0
:101C940067D0394A926802F00C02082A63D0022BFA
:101CA40036D10022354B1A6000F010FA054604E0E4
:101CB40000F00CFA401B022857D82F4B1B6813F076
:101CC400007FF5D1E269236A1343626A43EA82130F
:101CD400A26A5208013A43EA0243E26A43EA02630F
:101CE400226B43EA0273244A53600122234B1A6095
:101CF40000F0ECF9044604E000F0E8F9001B0228C7
:101D040035D81D4B1B6813F0007FF5D0002031E05F
:101D140000221A4B1A6000F0D9F9044604E000F0DE
:101D2400D5F9001B022824D8134B1B6813F0007F3D
:101D3400F5D100201EE001201CE003201AE003205E
:101D440018E0012016E0032014E0032012E0032031
:101D540010E003200EE003200CE003200AE003203F
:101D640008E0002006E0012004E0032002E0032054
:101D740000E0032002B070BD00380240600047421A
:101D84002DE9F04182B00023CDE09C4601229A4027
:101D94000C681440944240F0C5804D68022D01D077
:101DA400122D14D14FEAD30808F1080850F828700E
:101DB40003F0070E4FEA8E0E0F2505FA0EF527EAFB
:101DC40005060D6905FA0EF5354340F828500668F6
:101DD4004FEA430E032505FA0EF5ED4305EA06071F
:101DE4004E6806F0030606FA0EF63E4306604E6899
:101DF400771E012F03D9112E01D0122E12D186681D
:101E040005EA0607CE6806FA0EF63E438660476882
:101E140027EA02074E68C6F3001202FA0CF646EAF5
:101E240007024260C2682A408D6805FA0EF5154320
:101E3400C5604A6812F0805F74D0002201923D4A66
:101E4400556C45F480455564526C02F4804201920D
:101E5400019A9A08961C384D55F8266003F003073A
:101E6400BF000F25BD4026EA0506344DA84225D003
:101E740005F58065A8421FD005F58065A84219D0F4
:101E840005F58065A84213D005F58065A8420DD0FC
:101E940005F58065A84207D005F58065A84201D103
:101EA40006250CE007250AE0052508E0042506E0E0
:101EB400032504E0022502E0012500E00025BD40E1
:101EC400354302321C4E46F822501D4A1568E2433F
:101ED40002EA05064F6817F4803F01D044EA05067C
:101EE400174D2E606D6802EA05064F6817F4003F2F
:101EF40001D044EA0506124D6E60AD6802EA05069B
:101F04004F6817F4801F01D044EA05060C4DAE60FB
:101F1400ED682A404E6816F4001F01D044EA050219
:101F2400074CE26001330F2B7FF62FAF02B0BDE800
:101F3400F08100BF00380240003801400000024038
:101F4400003C01400AB18161704709048161704716
:101F540043690B40994202D1090481617047816150
:101F6400704700BF00F00700064AD36823F4E0631B
:101F74001B041B0C43EA002040F0BF6040F4003017
:101F8400D060704700ED00E030B4164BDC68C4F359
:101F94000224C4F10705042D28BF0425231D062BA4
:101FA40001D9033C00E00024012303FA05F5013DB7
:101FB4002940A140A340013B1A400A43002808DB02
:101FC4001201D2B200F1604000F5614080F80023B4
:101FD40005E000F00F001201D2B2034B1A5430BCDA
:101FE400704700BF00ED00E014ED00E0002807DBBF
:101FF400410900F01F0001238340024A42F82130C6
:10200400704700BF00E100E00138B0F1807F0AD2E0
:10201400064B5860F021064A82F82310002098608D
:1020240007221A6070470120704700BF10E000E0EB
:1020340000ED00E010B504460E4B18784FF47A73A7
:10204400B3FBF0F30C4A1068B0FBF3F0FFF7DCFFCE
:1020540058B90F2C0BD84FF0FF3021460022FFF760
:1020640093FF064B1C60002010BD012010BD012011
:1020740010BD00BF04000020080000200000002064
:1020840008B50B4B1A6842F400721A601A6842F4DD
:1020940080621A601A6842F480721A600320FFF7A3
:1020A40061FF0020FFF7C6FFFEF7E2FC002008BD39
:1020B400003C0240034A1368034909780B44136047
:1020C400704700BF8000002004000020014B186806
:1020D400704700BF8000002038B50446FFF7F6FFC4
:1020E4000546B4F1FF3F02D0044B1B781C44FFF7B4
:1020F400EDFF401B8442FAD838BD00BF0400002025
:102104000F49D1F8883043F47003C1F888300D4B7F
:102114001A6842F001021A60002098601A6822F0DE
:10212400847222F480321A60074A5A601A6822F4D0
:1021340080221A60D8604FF000638B60704700BF44
:1021440000ED00E00038024010300024DFF834D005
:10215400002103E00C4B5B58435004310B480C4BFB
:1021640042189A42F6D30B4A02E0002342F8043B99
:10217400094B9A42F9D3FFF7C3FF00F011F8FEF7B9
:10218400EDFB704700000220302200080000002010
:102194000C0000200C00002084000020FEE700005A
:1021A40070B50E4B0E4CE41AA41000251E46A54231
:1021B40004D056F8253098470135F8E700F016F8B2
:1021C400084C094BE41AA41000251E46A54204D06D
:1021D40056F8253098470135F8E770BD28220008E5
:1021E400282200082C22000828220008F8B500BF85
:1021F400F8BC08BC9E467047F8B500BFF8BC08BCE4
:042204009E4670473B
:10220800000000000000000001020304060708099E
:082218000000000001020304B4
:08222000DCE0FF7F010000007B
:042228003102000877
:04222C00090200089B
:0C22300010000000010000000024F40079
:04000005080021517D
:00000001FF
